:100000000C9469020C94B0020C94B0020C94B002EF
:100010000C94B0020C94B0020C94B0020C94B00298
:100020000C94B0020C94B0020C94ED210C94C122FB
:100030000C944F1D0C94B0020C94B0020C94B002BE
:100040000C94B0020C94B0020C94B0020C94B00268
:100050000C94B0020C94A61D0C94B0020C94B00247
:100060000C94B0020C94B0020C94B0020C94B00248
:100070000C94B0020C94B0020C94B0020C94B00238
:100080000C94B0020C94B0020C94B0020C94B00228
:100090000C94B0020C94B0020C94B0020C94B00218
:1000A0000C94B0020C94B0020C94B00229001E0013
:1000B0001F0020002100220023002400250026002C
:1000C00027002D002E002A004B002B0014001A00E0
:1000D0000800150017001C0018000C001200130087
:1000E0002F00300031004E003900040016000700D8
:1000F00009000A000B000D000E000F003300340051
:10010000280000004C00E1001D001B000600190043
:100110000500050011001000360037003800E1002E
:100120005200A800E0000000E2002C000000015195
:100130002C000000E2000000E000500051004F00E1
:10014000000035003A003B003C003D003E003F000F
:10015000400041004200430044004500010001000E
:100160002B000100E3004D00005C010001000100D4
:1001700049000100460001000100010001000100EA
:10018000AC00AE00AB00010001004A00010001001C
:100190000100010001000100000001000100C35C3A
:1001A000C45CC45C0100010001000100A800010062
:1001B0000100010001004B00AE00E0000000E20081
:1001C0002C00000001002C000000E2000000E00014
:1001D0004D004E004D00000000047F3F1F643214AC
:1001E000643214783C1E1E140A0522232526282971
:1001F0002A2C2D2F3032333536383A3B3D3E4042A3
:10020000434547494A4C4E5051535557595A5C5EE5
:100210006062646668696B6D6F71737577797B7DF9
:100220007F81838587898A8C8E90929496989A9CF8
:100230009E9FA1A3A5A7A8AAACAEAFB1B3B4B6B810
:10024000B9BBBCBEBFC1C2C3C5C6C7C9CACBCCCD72
:10025000CED0D1D2D2D3D4D5D6D7D7D8D9D9DADA4D
:10026000DBDBDBDCDCDCDCDCDDDDDDDDDCDCDCDCCD
:10027000DCDBDBDBDADAD9D9D8D7D7D6D5D4D3D201
:10028000D2D1D0CECDCCCBCAC9C7C6C5C3C2C1BFDF
:10029000BEBCBBB9B8B6B4B3B1AFAEACAAA8A7A543
:1002A000A3A19F9E9C9A98969492908E8C8A8987FF
:1002B0008583817F7D7B79777573716F6D6B6968DD
:1002C000666462605E5C5A5957555351504E4C4AB1
:1002D0004947454342403E3D3B3A3836353332305C
:1002E0002F2D2C2A292826252322FFAA7F554000BE
:1002F00001010101010101010102020202020202E7
:1003000002020303030303030303040404040404B9
:10031000040505050505060606060607070707077F
:1003200008080808090909090A0A0A0B0B0B0C0C32
:100330000C0D0D0D0E0E0E0F0F0F101011111112CE
:100340001213131414151516161717181819191A4D
:100350001A1B1B1C1D1D1E1E1F20202122222324B0
:1003600024252626272829292A2B2C2D2D2E2F30EF
:10037000313232333435363738393A3B3C3D3E3F03
:10038000404142434445464748494A4C4D4E4F50F0
:10039000515354555658595A5B5D5E5F61626465AE
:1003A0006668696B6C6D6F7072737577787A7B7D38
:1003B0007E8082838587888A8C8E8F91939596988C
:1003C0009A9C9EA0A2A3A5A7A9ABADAFB1B3B5B7A8
:1003D000BABCBEC0C2C4C6C9CBCDCFD1D4D6D8DB7F
:1003E000DDDFE2E4E7E9EBEEF0F3F5F8FAFDFF100C
:1003F000036B006F006C006900620072006900000E
:10040000000C036B00720065006D006500000004C5
:1004100003090409023B00020100A0FA09040000DC
:10042000010301010009211101000122400007051B
:10043000810308000A0904010001030000000921EA
:10044000110100012232000705820320000A120177
:10045000000200000008EDFE0000010001020001A2
:1004600005010980A101850319012AB7001501269C
:10047000B700950175108100C0050C0901A1018527
:100480000419012AA002150126A002950175108108
:1004900000C005010906A101050719E029E71500BB
:1004A00025019508750181029501750881010507EF
:1004B000190029FF150026FF009506750881000523
:1004C000081901290595057501910295017503919A
:1004D00001C011241FBECFEFDAE0DEBFCDBF04B6EE
:1004E00003FE27C08091EE029091EF02A091F002EE
:1004F000B091F1028730904BA740B04BD1F41092ED
:10050000EE021092EF021092F0021092F10214BE6D
:1005100084B7877F84BF0FB6F894A8958091600058
:10052000886180936000109260000FBEE0E0F8E305
:10053000099511E0A0E0B1E0E0E0FBE402C0059025
:100540000D92AC3CB107D9F722E0ACECB1E001C0B0
:100550001D92AE3EB207E1F70E949A120C94562506
:100560000C940000811108C089EA611101C08AEA77
:100570000E945D0480E008958130E1F781E561111A
:10058000F7CF82E5F5CF81E0089581E008950C94DE
:10059000C50208950C94C9021F93CF93DF9300D036
:1005A00000D00F92CDB7DEB749835A836B83309169
:1005B000CE0189819A8131111DC06623B9F02223B1
:1005C000A9F00E947E08182F682F89819A810E94C5
:1005D0002A0869817A81812F0F900F900F900F90D8
:1005E0000F90DF91CF911F910C94E60E0E94560858
:1005F000182FEFCF0E947E0869817A81EDCFFC0130
:10060000262F408151816281738184810C94CC02B8
:1006100081E00895CF93DF93EC0160E00E94FF0238
:10062000BE01DF91CF910C94CA020E9407110E9473
:100630008C030C942C110C942F1108950E94D30656
:100640000E941D032FEF84E39CE0215080409040E6
:10065000E1F700C000000C94CA1D0F931F93CF93C5
:10066000DF938C0161E00E94FF02EC01B8010E945F
:10067000C7028823D9F1B801CE010E94B61A882397
:10068000A9F1B801CE010E94081B882379F1B801B5
:10069000CE010E94321C882349F1B801CE010E948C
:1006A000FB18882319F1F8018281882361F0CB358A
:1006B000FDE5DF0721F170F4C115ECE5DE07A1F0DF
:1006C000CF3DDC45C9F0C801DF91CF911F910F915B
:1006D0000C94C302CC358DE5D807A1F0CD35DD45AE
:1006E00091F70E945B0CEFCF0E941E0380E0DF9128
:1006F000CF911F910F9108950E94D20DF7CF0E94C4
:10070000640CE1CF0E94670CDECF08950C94850342
:1007100081E008950C9488030895CF93C82F0E9418
:1007200086038C2FCF910C948A03CF93DF93CDB7A0
:10073000DEB72B970FB6F894DEBF0FBECDBF4F8349
:10074000588769877A878B8761110E948A0C1E827D
:100750001D8285E0FE013796DE01119601900D9213
:100760008A95E1F78C819D81892B89F449815A8191
:100770006B817C818D819E810E948A0B2B960FB6A6
:10078000F894DEBF0FBECDBFDF91CF910895898170
:100790009A8189238F3F51F3CE0101960E9408036D
:1007A0008111E4CFEBCFFC01808191810C94C008D2
:1007B000CF93C82F882309F43FC08CEF8C0F813A68
:1007C000A0F46C2F80910001909101010E94B61C51
:1007D000882329F08C2F0E942B0C0E94BA0C8C2F9E
:1007E0000E94240CCF910C94BA0C80E28C0F8830BC
:1007F00048F4C77081E001C0880FCA95EAF70E94EB
:100800006D0CF0CFEBE5EC0FE33040F4F0E0E25B91
:10081000FE4F808190E0CF910C94781CC85AC7316C
:1008200058F4EC2FF0E0EE0FFF1FE05EFE4F8081EA
:100830009181CF910C948E1CCF910895882329F13A
:100840009CEF980F913A20F40E942B0C0C94BA0C58
:1008500090E2980F983050F4877091E001C0990FA2
:100860008A95EAF7892F0E94730CF0CF9BE5980FC9
:10087000933020F490E080E00C94781C885A873103
:1008800020F490E080E00C948E1C08951F93CF9389
:10089000DF93182FEB010E94D803209731F4812FAA
:1008A000DF91CF911F910C941E048FE99FE0019777
:1008B000F1F700C000002197F0CF6AE070E08933C3
:1008C00011F460E570E00C944604882321F00E9446
:1008D0006D0C0C94BA0C0895882321F00E94730CBF
:1008E0000C94BA0C0895BF92CF92DF92EF92FF92D0
:1008F0000F931F93CF93DF936C01D62FC72FFC016B
:100900001281058102950F700E94420CE82E882307
:10091000A1F0E12E112389F08C2F807F803429F003
:1009200080E28D0FE12C883040F082E00E940B0DB8
:100930000E94420C91E0E82EE926BC2EB2949FE082
:10094000B922EB2DF0E0E85AFA4D0C94BD240C2F9F
:100950000F70C07F11F00295007F1123A9F00023D2
:1009600059F080E28D0F883010F0D11109C0802F2E
:100970000E946D0C0E94BA0C8D2F0E94D80314C0E7
:10098000802F0E947D0CF6CF8D2F0E941E04002325
:1009900059F080E28D0F883010F0D1112BC0802FDC
:1009A0000E94730C0E94BA0CEB2DE850FF0B349799
:1009B00020F40E94611C0E948D03EE2009F498C16E
:1009C0000E943E0C80FD94C1F60112820E94380CF8
:1009D0000E948E07C6010E9499060E94380CDF9182
:1009E000CF911F910F91FF90EF90DF90CF90BF902C
:1009F0000C94AF07802F0E94830CD4CFFC2FFF7084
:100A0000FF2EC07FC03219F0F29480EFF822DD2370
:100A100069F0D13049F1112391F1002351F1F60130
:100A2000858180FFA9CF8F70858323C0112381F03A
:100A3000011106C00E949D0C8F290E946504B4CF4D
:100A40000130C1F70E949D0C8F290E94A30CACCFEE
:100A5000011106C00E94B00C8F2D0E946C04A4CF1F
:100A6000013009F4A1CFF6CF112329F0063008F0A8
:100A70009BCF8F2DE2CF053008F096CFEDCF00232E
:100A800059F3D93309F01CC1FFEF27EE33E0F150E1
:100A900020403040E1F700C000008D2F0E941E046E
:100AA00083CF8C2F86958695837069F0813009F00D
:100AB0007BCF8D2F9C2F9370111102C090E080E0AE
:100AC0000E948E1C71CF8D2F9C2F9370111102C02C
:100AD00090E080E00E94781C67CF8C2F837009F033
:100AE00041C0111161CF4D2F429546954770440F7B
:100AF000440F0D2F0F7010E030E020E0042E04C0F2
:100B0000000F111F221F331F0A94D2F760E070E01C
:100B1000CB01D4FF0FC06FE070E080E090E004C034
:100B2000660F771F881F991F4A95D2F760957095B9
:100B300080959095C695C695C370602B712B822BBE
:100B4000932BC23049F058F4C13019F00E9440078D
:100B50002BCF0E942E0728CF0E94520725CF0E943C
:100B60002C0722CF8695112311F08C2F81708823BA
:100B700009F41ACF4D2F429546954770440F440F04
:100B80000D2F0F7010E030E020E0042E04C0000FA5
:100B9000111F221F331F0A94D2F760E070E0CB01CF
:100BA000D4FF0FC06FE070E080E090E004C0660FFB
:100BB000771F881F991F4A95D2F760957095809589
:100BC0009095C695C695C370602B712B822B932B85
:100BD000C23049F058F4C13019F00E940508E4CE43
:100BE0000E94F307E1CE0E941708DECE0E9468073C
:100BF000DBCECF70112329F08C2F0E948E078D2F12
:100C00001CCF8D2F0E946C048C2F0E94AF07CCCE7E
:100C1000D23F89F160F4D03FC9F0D13F29F11123CF
:100C200009F442C00111A8CE8C2F8F7121C0D33F8F
:100C300039F1D43FA1F7112369F1CF718C2F0E94B4
:100C40008E0763E08C2F0E94F00CAECE112341F092
:100C5000053008F0A9CE8C2F8F710E94D207A4CE48
:100C6000063008F0A1CEF7CF8C2F8F71112369F2D7
:100C70000E948E0799CE8C2F8F711123C9F3C5CF97
:100C8000112329F08C2F8F710E9479078DCE0E943D
:100C900074078ACE81E00E940B0D023008F484CEE6
:100CA00082E00E940B0D80CE002379F0D93341F40D
:100CB0009FEFE7EEF3E09150E040F040E1F7EBCE3C
:100CC0008FE39CE90197F1F7E6CE8C2F8F719DCFD2
:100CD0004C2F4F706D2FC6010E94E20E0E94EE084D
:100CE00063CE4C2F4F706D2FC6010E94E50E5CCE77
:100CF000DF91CF911F910F91FF90EF90DF90CF90F8
:100D0000BF9008950F931F93CF93DF93EC016881F9
:100D100079818A810E94CA088C010E9429080E9458
:100D20002B07B801CE01DF91CF911F910F910C9449
:100D30007304CF93DF93EC018B819C81892B29F085
:100D40008881998189238F3F59F4DF91CF9108954C
:100D5000CE010E948206CE01DF91CF910C940A034E
:100D6000CE010E942D038111F3CF0E94420C8823F3
:100D700061F38A81882349F382E0DF91CF910C945B
:100D80000B0D90E080E00E94781C90E080E00E94D3
:100D90008E1C0E948A0C0E949A0C0C94BA0C0E9421
:100DA000320C0C94C1060E947A0C0C94CF06E92FE9
:100DB000E295EF70E250EE3070F4F0E0E859FA4D51
:100DC0000C94BD24803F19F020F4883E20F481E08B
:100DD0000895843FE1F380E00895883EC0F3813FA9
:100DE000D1F7F5CF93FB882780F90895FC01808126
:100DF00091810E94C0080C94D706CF93DF9300D056
:100E000000D00F92CDB7DEB70F900F900F900F90DC
:100E10000F90DF91CF910895CF93DF9300D000D052
:100E200000D0CDB7DEB726960FB6F894DEBF0FBE62
:100E3000CDBFDF91CF91089508950C941C070E94B7
:100E40001D0760930502709306028093070290933A
:100E500008020C94C10608950C941F070F931F936A
:100E600000910502109106022091070230910802BC
:100E7000602B712B822B932B1F910F910C941F07CA
:100E80000F931F9300910502109106022091070213
:100E90003091080260237123822393231F910F91C5
:100EA0000C941F070F931F930091050210910602E7
:100EB000209107023091080260277127822793272B
:100EC0001F910F910C941F070C941C070C9464073E
:100ED0000E946607609301027093020280930302EE
:100EE000909304020C94C10660E070E0CB010C9476
:100EF00068070F931F9341E050E060E070E08A01C3
:100F00009B0104C0000F111F221F331F8A95D2F7C7
:100F1000C901B8011F910F910C9468070F931F939B
:100F200041E050E060E070E004C0440F551F661FD0
:100F3000771F8A95D2F78091010290910202A091C9
:100F40000302B09104028A019B01082B192B2A2B62
:100F50003B2BC901B8011F910F910C9468070F93A7
:100F60001F9341E050E060E070E004C0440F551F63
:100F7000661F771F8A95D2F7CB01BA0160957095ED
:100F80008095909500910102109102022091030238
:100F90003091040260237123822393231F910F91C8
:100FA0000C9468070F931F9341E050E060E070E0FD
:100FB00004C0440F551F661F771F8A95D2F7809192
:100FC000010290910202A0910302B09104028A01F1
:100FD0009B01082719272A273B27C901B8011F9120
:100FE0000F910C9468070F931F93009101021091C9
:100FF00002022091030230910402602B712B822B9C
:10100000932B1F910F910C9468070F931F930091DE
:101010000102109102022091030230910402602328
:101020007123822393231F910F910C9468070F93D0
:101030001F9300910102109102022091030230914E
:10104000040260277127822793271F910F910C9428
:10105000680708952FE0929F800D1124982F9770B4
:1010600041E001C0440F9A95EAF7869586958695EA
:1010700095E0899FF0011124E153FE4F90E080E05C
:1010800070E05191DF0111979B01082E02C0369547
:1010900027950A94E2F721702195252724232527F7
:1010A0002C9301968530910561F708952FE0929F6A
:1010B000800D1124982F977086958695869525E04A
:1010C000829FF0011124E153FE4F50E040E080E0A8
:1010D000219130E0092E02C0369527950A94E2F757
:1010E00021703327042E01C0220F0A94EAF7822BC5
:1010F0004F5F5F4F4530510559F70895BF92CF922A
:10110000DF92EF92FF920F931F93CF93DF938C01A7
:10111000C0900102D0900202E0900302F09004021D
:101120008091050290910602A0910702B0910802F9
:10113000C82AD92AEA2AFB2ACFE1D0E0BC2ED7015F
:10114000C6010C2E04C0B695A795979587950A946D
:10115000D2F780FD0EC0219788F7B12C8B2DDF913F
:10116000CF911F910F91FF90EF90DF90CF90BF90A4
:101170000895B8018C2F0E940C10019761F3EECFF7
:10118000CF93DF93EC010E947E08BE01DF91CF91E7
:101190000C940C101F93CF93DF93EB019091CE0131
:1011A000992331F0CB01DF91CF911F910C94C008AE
:1011B000882379F0CB010E947E08182F682FCE017A
:1011C0000E942A08BE01812FDF91CF911F910C94BC
:1011D0000C10CB010E945608182FF4CFEF92FF920B
:1011E0000F931F93CF93DF938C01892B81F0F12C08
:1011F000EE24E394E8012196F8018491843770F499
:10120000843008F05FC08130B1F08230A1F1DF910D
:10121000CF911F910F91FF90EF900895853709F4BA
:101220004CC008F43DC09CE7980F903780F78F774B
:101230000E941E0449C00E5F1F4FFE01849190E280
:10124000980F983060F48770FE2D01C0FF0F8A95CB
:10125000EAF78F2F0E948D0C0E94BA0C02C00E94E8
:10126000D8038F2D815030F2EFE9FFE03197F1F78D
:1012700000C00000F7CF0E5F1F4FFE01849190E287
:10128000980F983050F48770FE2D01C0FF0F8A959B
:10129000EAF78F2F0E94930CDFCF0E941E04E1CF4C
:1012A0000E5F1F4FFE01C491C150D8F28FE99FE03D
:1012B0000197F1F700C00000F7CF0E5F1F4FFE014E
:1012C000F490CFCF0E94D8038E01CBCF1F93CF9342
:1012D000DF93C091090216E080910A028C1304C0CA
:1012E000DF91CF911F910895D0E01C9FF0011D9FC9
:1012F000F00D1124E55FFD4F4081518162817381C2
:10130000848195810E940C072196C770E5CF40919A
:101310003B0250913C0260913D0270913E028091EF
:101320003F02909140020C940C071F93CF93DF93E0
:1013300080914002807FA9F480913D02882389F04A
:1013400080910902C0910A0260913B0270913C02B7
:10135000A0913E02B0913F02D62FD72316E0C813CA
:1013600004C0DF91CF911F91089590E0109711F084
:10137000DF3F19F401968770F2CF189F9001199FF3
:10138000300D1124F901E55FFD4F41814713F2CF84
:1013900040814613EFCF42814111ECCF438154810C
:1013A0004A1B5B0B483C510528F7809140028F7027
:1013B000806180934002F901E05FFD4F80818F7072
:1013C000806180838BE392E00E949906DF91CF9148
:1013D0001F910C946609AF92BF92CF92DF92EF9269
:1013E000FF920F931F93CF93DF93CDB7DEB7619733
:1013F0000FB6F894DEBF0FBECDBF8C0185E0F801BB
:10140000DE011D9601900D928A95E1F7F801E280C8
:101410008BE3C82E82E0D82E60913E0270913F028D
:101420006115710509F45AC190913B0220913C026B
:10143000892F82238F3F09F451C140815181A380BC
:10144000B480F0903D02F501E61BF70BFF2009F494
:10145000F6C080914002382F307FE83CF10508F05B
:10146000AFC0311179C0FE2C251323C0941321C0C5
:10147000E1101FC08F708061809340020E94870935
:10148000C6010E94990680914002F80185838F2D44
:1014900061960FB6F894DEBF0FBECDBFDF91CF913E
:1014A0001F910F91FF90EF90DF90CF90BF90AF9082
:1014B0000895AB2829F0842F85238F3F09F027C199
:1014C00080E0F82FF170DF2E80FF3CC08091090290
:1014D00020910A0236E0821315C04D875E878D8504
:1014E0009E850E94C008292F22952F702230F0F08F
:1014F000243018F59F70F1F0F8019581907FD1F4B8
:10150000D12C1EC090E0389FF001399FF00D1124BE
:10151000E55FFD4F6181651306C06081641303C000
:101520006281E6120FC001968770D5CF9F7011F0CF
:10153000882331F3805E883018F3C8010E94990631
:10154000FD2CA5CFEE2009F4A2CF8091400281604E
:1015500080934002F12C9BCF251306C0941304C046
:10156000F801EE2009F487C0C8010E94F60688231E
:1015700019F1EE2009F180914002803270F0209143
:101580003B0230913C0238872F831986BB86AA869E
:101590008C87CE0107960E94990686E0F801ABE39E
:1015A000B2E001900D928A95E1F70E9495090E94A0
:1015B0008709FF24F3946BCFC8010E949906F9CFE5
:1015C000311113C07A2DB98AA88A6E2D89890E949B
:1015D000FD068BE392E00E94990686E0F6011192E7
:1015E0008A95E9F70E948709B5CF25130FC0941398
:1015F0000DC0E1100BC0F8018583C8010E94990657
:1016000086E0F60111928A95E9F741CFC8010E9460
:10161000F606882389F2EE2079F28091400280322A
:1016200008F4BBCF20913B0230913C023A832983DE
:101630001B82BD82AC828E83CE010196ACCFE83C8A
:10164000F10508F03EC0FE2CEE2009F4B5CF2513BD
:101650002AC0941328C08091400280FD1BC0982F9F
:10166000907FC1F0F8018583903F31F0982F907FF3
:10167000905F8F70892B8583C8010E94990686E050
:10168000F801ABE3B2E001900D928A95E1F70E9478
:101690008709FDCE86E0F801ABE3B2E001900D9240
:1016A0008A95E1F7F4CEC8010E94F606811175CF44
:1016B00080914002816080934002C8010E94990697
:1016C000E6CE7A2DB98AA88A6E2D89890E94FD06F8
:1016D00086E0F60111928A95E9F7D9CFEE2009F458
:1016E0006BCFC8010E94F606F82E882309F464CF58
:1016F00086E0F801ABE3B2E001900D928A95E1F744
:101700008BE392E00E94D3030E949509C0CF81E051
:101710008E25D7CE1F93CF93DF93CDB7DEB72C970F
:101720000FB6F894DEBF0FBECDBF4F8358876987D1
:101730007A878B879C87CE0107960E94EB098823C6
:1017400069F08A859B85892B39F04F815885842FD4
:1017500085238F3F09F071C016E05FC086E0FE016F
:101760003796DE01119601900D928A95E1F78A85F0
:101770009B85892B89F38F81988589238F3F61F31E
:1017800020910A0230E0C9010196877099274091A3
:1017900009024817190671F40E94D30610920A0232
:1017A0001092090286E0EBE3F2E0DF011D928A95D8
:1017B000E9F7D2CF96E0929FD001939FB00D11240C
:1017C000A55FBD4FFE01319601900D929A95E1F70C
:1017D00080930A020E946609BFCF819FC001112435
:1017E000855F9D4F0E94EB098823E9F0E091090293
:1017F0001E9FF0011124E55FFD4F40815181628100
:101800007381848195810E940C078091090290E088
:10181000019687709927809309028091090290911F
:101820000A028913DACF2C960FB6F894DEBF0FBEEA
:10183000CDBFDF91CF911F91089569857A858B8502
:101840009C850E940C0788CF682F809100019091A1
:1018500001010C94EC1C682F809100019091010112
:101860000C94EE1C80910001909101010C94F01CED
:1018700080914102859585958595089580914102D5
:101880008770089590914102977081E009F480E09B
:1018900008959091930292FB222720F9281751F086
:1018A00080FB92F99093930280919202909193021F
:1018B0000C944E0D08958091930282FB882780F945
:1018C00091E089270C94490C81E00C94490C80E04C
:1018D0000C94490C80914D02089590914D02892BF2
:1018E00080934D020895809590914D029823909396
:1018F0004D02089510924D02089590914C02892B4B
:1019000080934C020895809590914C029823909377
:101910004C02089510924C02089590914B02892B2D
:1019200080934B020895809590914B029823909359
:101930004B02089510924B0208958091420208953F
:1019400008950C94A00C9091930292FD08C0909180
:101950004202981721F0809342020C94A10C089542
:1019600080914202882329F01092420280E00C9478
:10197000A10C0895E0910001F091010180914D02C8
:101980008083E0910001F0910101808190914C02EF
:10199000892B8083E0910001F09101018081909179
:1019A0004B02892B808390914202992381F0E09130
:1019B0000001F09101018081892B808380910001D9
:1019C000909101010E94A41C81110E94B00C809191
:1019D0000001909101010C946D1C08950C94ED0C84
:1019E0009091930292FD10C098E0899F900111247C
:1019F000622B609341020E948E078091410285957F
:101A0000859585950C94EE0C0C948E0710924102EE
:101A100080E00C94EE0C9091410280958923809394
:101A20004102282F277039F4282F082E000C330B81
:101A30009217130621F49091930292FF07C08595A7
:101A4000859585950E94AF070C94060D08956FEF5C
:101A50007FEF90E080E00C94402590E080E00E94D1
:101A60001C2521E0893E9E4F09F020E0822F089539
:101A700082E090E00C940E2583E090E00C940E251B
:101A8000CF9384E090E00E940E25C82F82E290E080
:101A90000E940E25982F8C2FCF910895CF93C92F98
:101AA000682F84E090E00E9422256C2F82E290E073
:101AB000CF910C942225AB01BC018FE090E00C94F7
:101AC0003425AB01BC0183E190E00C94342560E047
:101AD00070E0CB010C94610D60E070E0CB010E94DE
:101AE0005B0D0C94670D69EE7EEF90E080E00E9444
:101AF000402560E082E090E00E94222560E083E0E3
:101B000090E00E9422251092050210920602109287
:101B100007021092080260E084E090E00E94222513
:101B200060E082E290E00E94222560E085E090E0A3
:101B30000E94222560E086E090E00E9422256FEF5F
:101B400087E090E00E94222540E050E0BA0188E062
:101B500090E00E94342560E08DE090E00E94222514
:101B600040E050E0BA0188E190E00E94342560E056
:101B700087E190E00E94222540E050E0BA018CE12C
:101B800090E00E94342570E060E080E290E00E94E6
:101B9000402540E050E0BA0188E190E00E94342501
:101BA0000C946C0D0C94730D682F8EE090E00C94E7
:101BB00022250E948B1D60936102709362028093C4
:101BC00063029093640260935D0270935E0280935F
:101BD0005F029093600208950E948B1D60936102E2
:101BE000709362028093630290936402609359023F
:101BF00070935A0280935B0290935C02089585B7BC
:101C0000806885BF85B7806885BF08950895089569
:101C10000C94060E08950C940A0E0E94FF0D8AEE95
:101C200090E10E94EE1D0E94070E0C94080E81E0C8
:101C300008950C94170E089508950E941B0E0C949D
:101C40001C0E0E94761D0E94ED110E9409180E9430
:101C5000F4190C940B0E8F929F92AF92BF92CF9279
:101C6000DF92EF92FF920F931F93CF93DF93CDB745
:101C7000DEB72A970FB6F894DEBF0FBECDBF0E9425
:101C8000151281110E94D90D5FE4852E52E0952E28
:101C900010E000E0A02E802F0E9431116C01F401B1
:101CA000E190F1904F01E816F90609F461C08091C6
:101CB000650281FD0E943A11C7018C259D25B12C3A
:101CC000EE24E394F12C9C012E213F21232B09F4D7
:101CD00049C00E94190E8823A9F0BE82AF82CE208F
:101CE000DF2081E0CD2809F480E088870E947F1DF5
:101CF0008160782F9A8789874E815F8168858A8580
:101D00000E949503000F111FF801E15BFD4F8081D8
:101D10009181E826F926F182E0820E944D180E9406
:101D2000031A81110E94EC0D0E94611C90914E02D9
:101D30008917A9F10E94611C80934E022A960FB662
:101D4000F894DEBF0FBECDBFDF91CF911F910F91F1
:101D5000FF90EF90DF90CF90BF90AF909F908F90CB
:101D60000C948D03B394EE0CFF1CFFE0BF12ABCFBD
:101D70000F5F1F4F0530110509F08CCF8FEF89835E
:101D80008A831B820E947F1D8160782F9D838C83B4
:101D900049815A816B818D810E949503BECF2A961D
:101DA0000FB6F894DEBF0FBECDBFDF91CF911F916C
:101DB0000F91FF90EF90DF90CF90BF90AF909F90EA
:101DC0008F90089590E080E008950895972F70E037
:101DD0002FE0929F600D711D1124FB019BE4899FF0
:101DE000E00DF11D1124EE0FFF1FE455FF4F85910B
:101DF00094910895FC01EE0FFF1FE852FE4F85916C
:101E000094910895CF93DF930E941010EC018115F7
:101E100020E5920708F041C0811530E4930708F0EF
:101E2000B4C0803E910518F5803C910508F09DC036
:101E3000883A910570F4853A910508F08EC081309A
:101E40009105F9F00097E9F00497D8F4D0E0C0E0EC
:101E500018C08F3B9105D0F7C85AD0E0CC0FDD1FDA
:101E6000CF5ADE4F0990D881C02DD4640AC08115A5
:101E7000904258F4C11581E0D80718F4C83ED10546
:101E800028F7CE01DF91CF910895C11590E3D907CE
:101E900008F071C0CE019F706AC0811525E59207D8
:101EA00058F5811534E5930708F09EC0811542E589
:101EB000940750F4C11581E5D80708F469C0DC2FF8
:101EC000CC27C16FD06ADDCF982F969596959E014D
:101ED00023703327C115D34508F077C0C1E0D0E0A7
:101EE00002C0CC0FDD1F2A95E2F720E2929FC001CD
:101EF0001124C82BD92B67C0C11589E5D807A8F4D0
:101F0000C11598E5D90708F074C0C11526E5D207B8
:101F100008F09CCF8C2F0E94A710C82FD0E0DC2F98
:101F2000CC27CC27DF71D062ACCFC1153AE5D307FF
:101F300008F464C0CE0190568115904208F086CF17
:101F40008D2F8F710E94A71090E0982F88278827E7
:101F50009F719C012C2BE901E6CFC55AD0E0C158F6
:101F6000DE4FC881D0E0D0648CCF805C91090E94A4
:101F7000FA0EEC0186CFCE019927D3FF03C0EC0106
:101F8000D86C7FCFEC01D06C7CCFDF70D06A79CF7A
:101F9000CE01E4E096958795EA95E1F783702C2FC2
:101FA00026952695237090E2299F90011124382BC5
:101FB0008C2F8370C1E0D0E002C0CC0FDD1F8A956A
:101FC000E2F7C22BD32BDC685CCFC1E0D0E002C0CB
:101FD000CC0FDD1F2A95E2F730E2939FC001112458
:101FE000C82BD92BDA684DCFD82FCC27C46FD06A35
:101FF00048CFDC2FCC27C06FD06A43CF8C2F8F7097
:102000000E94A71034E0D695C7953A95E1F7CF70B6
:102010009C2FEC01D06935CF0E94E60E0C94020F84
:1020200082389105B1F1B0F48133910509F475C09E
:1020300048F48932910509F469C08A32910509F49E
:1020400073C008958533910509F459C0893391050A
:1020500001F10895833E9105A9F138F4803E910580
:10206000F9F0823E910549F10895863E9105A9F166
:10207000873E9105C9F1843E910519F5209193029F
:1020800021FF1FC08091920284FD14C087EE90E072
:102090000895209192022370A1F080EE90E00895BF
:1020A0002091920220FD47C03091930230FF09C079
:1020B00024FF44C090E080E004C02091920222FD01
:1020C000F7CF08952091920222FD3BC030919302F8
:1020D00030FDE3CF24FFF5CFEDCF2091920223FF17
:1020E000F0CF24FDE7CFD2CF2091920223FD2CC068
:1020F0003091930231FFEECF84EE90E0089520916D
:10210000920225FFDECF89E290E0089520919202AD
:1021100025FFD7CF85E390E008952091920226FF16
:10212000D0CF8AE290E008952091920226FFC9CF95
:1021300081E390E0089589E390E0089583EE90E0D4
:10214000089582EE90E0089586EE90E008959091D3
:10215000920292FF06C0282F28712830F9F4877F59
:10216000846093FF06C0282F28712831F1F4877E00
:1021700084612091930220FF06C0382F38713830D7
:10218000D9F4877F816021FF06C0282F287128316C
:10219000D1F4877E816194FD877E0895282F247174
:1021A0002430F9F68B7F8860DCCF282F247124310E
:1021B00001F78B7E8861DDCF382F3171313019F70F
:1021C0008E7F8860E0CF282F2171213121F78E7E0C
:1021D0008861E1CF80E008950C94270D0E941512CC
:1021E0002FEF86E791E0215080409040E1F700C05A
:1021F00000000E94151280E00E94311180FF04C08F
:102200000E94EC100C94CA1D08950C94EE100E94CC
:102210002D0D811102C00E94D20D0E94380D8093B5
:1022200065020E94400D90939302809392020E9457
:1022300005110E943C0D682F70E090E080E00E9444
:102240002C0760910102709102028091030290912B
:1022500004020C94660708950C942B1108950C94B5
:102260002E11E82FF0E0EE0FFF1FE256FD4F8081A8
:1022700091810895089580EA8A95F1F7089500C044
:1022800008950C943B11F894E82FE295EF70F0E07C
:1022900031A1282F2F7081E090E001C0880F2A958E
:1022A000EAF7982F9095932391A392A1892B82A36B
:1022B00078940895CF93DF93C1E9D1E089918F3F5E
:1022C00011F00E94431181E0C639D807B9F7C2E87E
:1022D000D1E089918F3F11F00E94431181E0C13913
:1022E000D807B9F7DF91CF910895AF92BF92CF92FF
:1022F000DF92EF92FF920F931F93CF93DF938C01A6
:10230000B62EC62FD0E0CE018F569E4F7C01FC0129
:1023100020812F3F09F453C0F894E22FE295EF702B
:10232000F0E031A12F7081E090E001C0880F2A9584
:10233000EAF7932F982B91A392A18095892382A3EA
:1023400078940E943F11E2E8F1E030E020E0D12CE7
:10235000C12C41E050E081918F3FE1F1A82FA2957F
:10236000AF70B0E090966C9170E08F7002C0759580
:1023700067958A95E2F760FD2DC0CA01022E02C062
:10238000880F991F0A94E2F7C82AD92A2F5F3F4F76
:102390002F30310501F7F70180818F3F11F00E9446
:1023A000431161E0C114D10409F460E08B2D0E9457
:1023B0004111CC0FDD1FC00FD11FD982C882DF9120
:1023C000CF911F910F91FF90EF90DF90CF90BF9032
:1023D000AF90089590E080E0D7CF0E945A11A4E911
:1023E000B2E011961C921E92EEE9F2E01182108288
:1023F00013961C921E9212971382128215961C92AB
:102400001E9214971582148217961C921E9216978C
:102410001782168219961C921E92189711861086A2
:1024200085E00E9460120C941503FF920F931F9396
:10243000CF93DF93CDB7DEB72A970FB6F894DEBF00
:102440000FBECDBF8E010F5F1F4F8AE0F8011192C2
:102450008A95E9F7F12C6F2DC8010E947511F3944C
:10246000F5E0FF12F8CF4AE050E0B80184E992E0CD
:102470000E940125FF24F394009709F4F12C892B85
:1024800041F08AE0F801A4E9B2E001900D928A954A
:10249000E1F72F2D45E06EE972E084E992E00E94B9
:1024A00061120E941B038F2D2A960FB6F894DEBF8F
:1024B0000FBECDBFDF91CF911F910F91FF90089577
:1024C0000895FF920F931F93CF93DF93F82E092F58
:1024D000162FD72FC42F222349F081E08093680262
:1024E0000E947F1D9093670280936602809168022C
:1024F0008823A1F080916602909167020E94971D47
:10250000059760F0EF2DF02FA12FBD2F90E080E018
:10251000D0E08C179D0744F010926802DF91CF91B4
:102520001F910F91FF900895219131912D933D932B
:102530000196EFCF0E94F71C0E942C1F0E94451F9E
:102540000E94571F0E941D0EFBCFEF92FF920F9328
:102550001F93CF93DF93EB01E82FD11110C04423D9
:1025600021F0F0E0E151FD4FE4916E2F7E2F8E2F90
:10257000DF91CF911F910F91FF90EF9008950D2F54
:1025800010E0282F30E0442329F021513D4FF9017C
:10259000249130E0F6E0CF9FC0011124EFEFF0E08E
:1025A000BF010E947324AB018C2F90E0880F991F0C
:1025B000A5E5A49FB001A59F700D1124861B970B64
:1025C000982F990F980FBF01601B710B629FD0016C
:1025D000639FB00D729FB00D11248B2F9D9FB00192
:1025E0001124672F7727EF01C61BD70BBE01629F0F
:1025F000E001639FD00D729FD00D11247F01E91A75
:10260000F108E09EB001E19E700DF09E700D112466
:10261000672F7727E61BF70BE29F8001E39F100DE2
:10262000F29F100D1124E12F722F4230510599F0C5
:1026300048F44115510569F04130510581F0EB2F07
:102640008D2F07C04430510569F080F046305105A8
:10265000B1F76E2F8DCFE22F7B2F812FFACFE22F94
:102660007D2FF7CFEB2F822F712FF3CF7B2F822F70
:10267000ED2FEFCF41E00C94A51208950C943A137E
:10268000CF93DF93762FE901682F842F0E943E13AA
:10269000798368838A83DF91CF9108958091A8021E
:1026A000982F9E7F29F4817082608093A8020895FC
:1026B0008A34E8F381708864F8CF88E090E00C9465
:1026C0001625CF92DF92EF92FF926B017C010E9460
:1026D0004E13B701A60188E090E0FF90EF90DF90E5
:1026E000CF900C943425E8EAF2E083E080831182F5
:1026F0008FEF8283838314826081718182819381D1
:102700000C9461138091A80280FF02C08695089501
:1027100080E008959091AC02933018F49F5F9093FD
:10272000AC02882351F06091A8027091A9028091B7
:10273000AA029091AB020C946113089581E00C946D
:102740008A139091AC02992319F091509093AC02A6
:10275000882351F06091A8027091A9028091AA0289
:102760009091AB020C946113089581E00C94A11335
:1027700070E00C94C619609106018091A80280FF58
:102780000AC08091050123E0829FC0011124835576
:102790009D4F0C94B813809107019091080123E09C
:1027A000829FF0011124E355FD4F891750F71182E4
:1027B000108212828F5F3396F8CF9091A80290FF1B
:1027C00014C0909107012091080133E0939FF0011C
:1027D0001124E355FD4F921710F00C94BB13818325
:1027E000608342839F5F3396F6CF0895CF93DF9344
:1027F00000D00F92CDB7DEB79091A80290FF0AC02B
:102800009E012F5F3F4F0E9440134B8169818A8157
:102810000E94DD130F900F900F90DF91CF910895DC
:10282000CF93DF93EC01EC81F0E0E651FE4F449151
:10283000E8EAF2E0628181810E94F6138C818F5F69
:102840008C83DF91CF910895CF93DF93EC01E8EA79
:10285000F2E0438162818C810E94F6138C818F5F4C
:102860008C83DF91CF9108950F931F93CF93DF93C4
:1028700000D00F92CDB7DEB78C0180916902811133
:102880000AC09E012F5F3F4F4FEF6FEF0E94401332
:102890008A8180936902F8016481613069F08091D6
:1028A000690240E0662361F040E0623011F440913B
:1028B000690280E060E004C06091690240E080E06D
:1028C0000E94DD13F801848190E0019663E070E0DE
:1028D0000E94872484830F900F900F90DF91CF91F7
:1028E0001F910F910895AF92BF92CF92DF92EF9216
:1028F000FF920F931F93CF93DF9300D00F92CDB72A
:10290000DEB7182FF62E042FE22E9091A80290FF2A
:1029100029C0E92FE695AE2FB0E0AA56BE4F8C91A4
:10292000809375029E7F923059F59E012F5F3F4F35
:10293000812F0E9440134B8169818A810E94DD139F
:102940001093A902F092AA020093AB02EE2051F07C
:102950006091A8027091A9028091AA029091AB02A5
:102960000E9461130F900F900F90DF91CF911F91F4
:102970000F91FF90EF90DF90CF90BF90AF900895B0
:10298000823019F40091AB02DBCF863019F410913C
:10299000A902D6CF8930D9F3893191F6E9518E2F2A
:1029A0008170D82EE695F0E0E651FD4FA590B490E9
:1029B000C12CBB2460910901C61618F00E94BB13FC
:1029C000BFCF2C2D30E0A29EC001A39E900DB29EE1
:1029D000900D112470E00E947324812FD11013C038
:1029E000860F40910701420F532F511D9A01220F6C
:1029F000331F240F351F23553D4F402F6F2D0E944D
:102A00004013C394D7CF861BECCFE8EAF2E0918164
:102A1000282F4381628188E0890F0C94731481E030
:102A20000C940515E8EAF2E09181282F4381628138
:102A300088EF890F0C94731481E00C941215E8EA66
:102A4000F2E0628128E0620F08F46FEF282F4381E3
:102A500081810C94731481E00C941F15E8EAF2E074
:102A6000628128E0621B08F460E0282F43818181A5
:102A70000C94731481E00C942E15E8EAF2E0438183
:102A800028E0420F08F44FEF282F628181810C94D7
:102A9000731481E00C943D15E8EAF2E0438128E0EC
:102AA000421B08F440E0282F628181810C9473144A
:102AB00081E00C944C1520E00C947314EF92FF927B
:102AC0001F93CF93DF93EC0110E0EE24EA94F12CF6
:102AD00060910901161770F00E94BB139A818C81D6
:102AE00090FF27C08F5F8C83DF91CF911F91FF9064
:102AF000EF90089520910701422F410F5527551F50
:102B0000CA019A01220F331F280F391F23553D4F49
:102B100070E0C7010E948724962F8C814091AB0200
:102B20006091AA02199F800D11240E9440131F5F1B
:102B3000CFCF8150D8CFBF92CF92DF92EF92FF924A
:102B40000F931F93CF93DF93FC0182810FEF80FFE0
:102B500001E010E0809109011817C0F00E94BB133A
:102B600080916B02013009F051C0811102C0809147
:102B70000901815080936B02DF91CF911F910F91DA
:102B8000FF90EF90DF90CF90BF900895C091070124
:102B9000C12ED12CCC0DDD2DD11DCE01880F991F5A
:102BA000C80FD91FC355DD4F198218821A8234E02D
:102BB000E32EF12CB12C80916B028B0D813104F14D
:102BC0008F70082E000C990BC816D90691F48091CD
:102BD000AB028E9DA0018F9D500D112455954795F8
:102BE000559547959E016091AA028091A9020E9485
:102BF0004013B00EF1E0EF1AF108E9F61F5FAACF1B
:102C000087FFDFCF90910901890FDBCF90E001961C
:102C10006091090170E00E948724ACCF0F931F934D
:102C2000CF93DF93809107019091080123E0829F69
:102C3000F0011124E355FD4F891740F1C0E0D3E0C6
:102C400060910901C61740F10E94BB132091030156
:102C500080916A02820F80936A0290910401920F20
:102C600090930401191654F4082E000C990B40910E
:102C700009014150550B841795071CF021952093AD
:102C80000301DF91CF911F910F910895118210825E
:102C900012828F5F3396D0CF0C2F10E070E0C80106
:102CA0000E94872420910701820F482F50E0209135
:102CB0006A02022E000C330B02171307BCF020919E
:102CC0000401022E000C330B201731077CF08D9F7E
:102CD0009001112423553D4F4091AB026091AA020F
:102CE0008091A9020E944013CF5FAACFFA01EE0F94
:102CF000FF1FE40FF51FE355FD4F11821082128272
:102D0000F3CF8F929F92AF92BF92CF92DF92EF92CA
:102D1000FF920F931F93CF93DF93EC014C81042F0D
:102D200010E09801D8010E94CB249B01AC010E94C5
:102D3000E1244B015C01E0E2F0E0E01BF10BA5E5D2
:102D4000B0E0AC019B010E94E1246B017C019F017A
:102D5000DF010E94C3249B01AC010E94EC249B0173
:102D6000AC01280D391D4A1D5B1DC701B6010E942B
:102D70009B24F22E822F90E039E23F1560F143E070
:102D8000249F9001112435952795122F109500E06E
:102D900085E5E82EEF1880910901081758F10E9487
:102DA000BB139C8181E0992319F0903219F48FEFC5
:102DB0008093020180910201890F8C83DF91CF9172
:102DC0001F910F91FF90EF90DF90CF90BF90AF9049
:102DD0009F908F90089525E530E0B901681B790B2D
:102DE0009B01220F331F260F371F37FFCCCF2F5FDA
:102DF0003F4FC9CF8E2D01FD8F2D20910701622FEE
:102E0000600F7727771F9B01220F331F260F371F75
:102E100023553D4F412F6091AA020E9440130F5F3E
:102E2000BACF0F931F93CF93DF93EC0110E000E034
:102E3000909109019017110609F06CF40E94BB13E0
:102E40008C8190E00196817099278C83DF91CF91DE
:102E50001F910F91089520910701A801420F511D64
:102E60009A01220F331F240F351F23553D4F4C81EC
:102E70006091AA028091A90296959017110651F0CF
:102E80004CF0442349F04091AB020E9440130F5F85
:102E90001F4FCECF4423B9F340E0F7CFE8EAF2E08A
:102EA00080818E7F808360817181828193810E9485
:102EB0006113109276022FEF80E792E0215080405C
:102EC0009040E1F700C000000C94BB13E8EAF2E088
:102ED00080818E7F8083109276022FEF80E792E0D0
:102EE000215080409040E1F700C000000C94BB13DB
:102EF000109276028091730281110AC081E0809362
:102F000073028091A8028170809372020C946617FC
:102F100008956091A802669570E04BE050E08AE069
:102F200091E00E94F424892B19F481E080937602C9
:102F30000E947F1D90936D0280936C020895909182
:102F4000A80290FF35C09170811128C092609093C3
:102F5000A802662351F06091A8027091A9028091A5
:102F6000AA029091AB020E9461136091A80266953B
:102F700070E04BE050E08AE091E00E94F424892B5D
:102F8000A1F01092760281E080936F024091AB0233
:102F90006091AA028091A9020C945B15853210F011
:102FA0009864D5CF880F982BD2CF0E948917EBCF8A
:102FB0000895682F9091A802969581E0890F853237
:102FC00008F081E00C949F1781E00C94D917682FCA
:102FD0009091A80296958FEF890F09F484E20C94E2
:102FE0009F1781E00C94E71761E00C949F17E8EAC3
:102FF000F2E080818160808386950C94F417809143
:10300000A80280FD0C944E170C94F71760E00C9406
:103010009F178091740281112EC00E942D0D811185
:1030200004C00E94D20D0E9473130E945D1360932E
:10303000A8027093A9028093AA029093AB026E7FBC
:1030400061F40E9473130E945D136093A802709351
:10305000A9028093AA029093AB020E944E13109291
:1030600076028091A80280FF03C086950E94061810
:1030700081E0809374020895E8EAF2E08081816043
:10308000808386950C9406181092730280917202C8
:1030900081110E943C180C9489170F931F93CF93B2
:1030A000DF9380917602882309F486C080917502AF
:1030B000E091A802E695E81BE0936E02823091F55C
:1030C000F0E0EA51FE4FE491CE2FD0E000E114E1B0
:1030D00080916F02882361F010926F020E947F1D21
:1030E00090936D0280936C021092710210927002A4
:1030F0000E947F1DE0916C02F0916D028E1B9F0B70
:103100008F3F9F4708F058C0EC0FFD1FF0936D02F2
:10311000E0936C028CE692E0F801DF91CF911F9171
:103120000F910994863049F4F0E0ED51FE4FE4919F
:10313000CE2FD0E004E214E1CBCF893051F4E695F4
:10314000F0E0E052FE4FE491CE2FD0E00EE515E125
:10315000BFCF8F3051F4E695F0E0E352FE4FE4919B
:10316000CE2FD0E00BE915E1B3CF853149F4F0E083
:10317000E652FE4FE491CE2FD0E00EE016E1A8CF4C
:10318000C8E2D0E001E816E1883109F4A1CF83322A
:1031900039F4E8EDF1E0C591D49104E314E198CF5E
:1031A000C4EFD1E001E117E1843209F491CFC0ED21
:1031B000D7E00DE313E18CCFDF91CF911F910F91F9
:1031C0000895FA01811101C0FB010994CF93DF93A7
:1031D000C82FD62F0E9482138C1740F00E948213B2
:1031E0008D1720F4DF91CF910C94E4178C2FDF9191
:1031F000CF910C94F4171F93CF93DF93EC01FB0155
:103200001281112309F4C0C00E946A0C8272CD3C65
:10321000FCE5DF0709F49CC008F044C0C73CECE5BE
:10322000DE0709F481C0F0F4C43C9CE5D90709F439
:1032300071C048F4C33CDC4509F469C0812FDF91BB
:10324000CF911F910895C53C9CE5D90709F467C04B
:103250004CE155E16FE075E1C63CDC4579F70E9431
:10326000E11853C0CA3CFCE5DF0709F467C068F405
:10327000C83CECE5DE0709F45CC04BE255E16AE3CB
:1032800075E1C93CDC4559F3D9CFCB3C9CE5D90766
:1032900009F459C045EB53E16EE973E1CC3CDC45E0
:1032A000F1F2CCCFC23DFCE5DF0709F462C098F42F
:1032B000CF3C9CE5D90709F454C008F44EC0C03D8A
:1032C000FCE5DF0709F452C0C13DDC4509F0B6CF8B
:1032D0006EE089E048C0C53D9CE5D90709F44FC0C0
:1032E00058F4C33DFCE5DF0709F446C0C43DDC45A6
:1032F00009F0A4CF88E132C0C63D9CE5D90709F4A6
:1033000041C0CE35DD4509F099CF10E097CF0E943E
:10331000FF17FBCF41EF57E164EE77E1A0CF44EE1A
:1033200057E161EF77E19BCF4FE055E16CE175E14B
:1033300096CF4AE355E16BE275E191CF48E555E15F
:1033400069E475E18CCF49E455E168E575E187CF23
:103350004EE953E165EB73E182CF81E00E94F417FF
:10336000D4CF65E082E00E94E618CFCF68E086E027
:10337000FACF64E18FE0F7CF67E185E1F4CF62E255
:1033800089E1F1CF83E2EACF11E058CF819A41B3CE
:103390004D7F51B35260EFB7F8949B01220F331F5A
:1033A000260F371F280F391F2817390741F4EFBFA1
:1033B0008FE594E00197F1F700C000000895DC016B
:1033C0006D91CD0178E051BB000000C067FF41BBAB
:1033D000660F000000C000C000C041BB00C07A956D
:1033E00091F7E2CF0C94B2022098289A84988C9A94
:1033F00083B181707C9905C090E0892B809379021C
:10340000089592E0FACFE0917902EE0FEE0FE0938B
:10341000790243B1842F81704FB144FB222720F9F8
:1034200044FF02C022E030E0822BE82BE0937902D7
:10343000EF70F0E0E554FE4F808190917802890FA3
:103440008093780220E0843054F0809177028F5F7F
:103450008093770261E080E00E94F21921E0809180
:1034600078028D3F54F480917702815080937702E7
:1034700060E080E00E94F21921E080917802082E3D
:10348000000C990B64E070E00E948724809378021E
:10349000822F08950F931F93CF93DF93C42FD22FC2
:1034A000FC0182818823C9F040937C020E947F1D29
:1034B00090937B0280937A0280E28C0F883008F030
:1034C00050C0C77081E001C0880FCA95EAF7DF914C
:1034D000CF911F910F910C94650410917C021413ED
:1034E00035C080917A0290917B020E94971D883CA2
:1034F000910560F5C0E2CD0F1D17B9F080E2810F94
:10350000883040F4177081E001C0880F1A95EAF7FF
:103510000E946C04C83048F481E09D2F977001C070
:10352000880F9A95EAF70E946504802F0E945D0437
:10353000C830B8F4D77081E001C0880FDA95EAF797
:10354000DF91CF911F910F910C946C0480E28C0F4E
:10355000883038F4C77081E001C0880FCA95EAF757
:10356000EFCFDF91CF911F910F9108950F939C01A1
:10357000CB01243F4CE5340759F1A8F4293DFCE583
:103580003F0701F12A3D4CE53407D1F1283D3C4588
:1035900091F406E221EE41EE68ED7CE50E944A1AC4
:1035A00080E00F910895263FFCE53F07E9F0B0F079
:1035B000273F3C45F9F0FC018281882339F11092C4
:1035C0007C02EFCF07E225EE45EE69ED7CE5E6CF24
:1035D00006E221EE40EE64EF7CE5E0CF07E225EE67
:1035E00044EE65EF7CE5DACF06E221EE42EE66EFCF
:1035F0007CE5D4CF07E225EE46EE67EF7CE5CECF43
:1036000008E221E045EE6AED7CE5C8CF81E0C9CF54
:10361000CF93DF93EC01FB018281882309F420C161
:10362000C430FDE5DF07C8F5CB3F9CE5D90730F492
:103630009E0122503C452431310598F50E94400DF1
:103640009093930280939202C031FCE5DF0709F466
:10365000E0C008F061C0C8309CE5D90709F4CBC0D0
:1036600088F5C430FCE5DF0709F4B3C0E8F4C230E4
:103670009CE5D90709F4A7C0809192028260C3300B
:10368000DC4509F4A3C080919202909193020E94BC
:103690004E0D0E94D30680E004C0C236EDE5DE0781
:1036A00069F2DF91CF910895809192028061C630D6
:1036B000FCE5DF0709F48AC008F48FC0809192020C
:1036C000806284C0809192028D7FCC309CE5D907C6
:1036D00009F47CC070F4809192028C60CA30FCE5E1
:1036E000DF0709F473C008F48AC0809192028E7FCC
:1036F0006DC080919202877FCE309CE5D90709F496
:1037000065C0809192028B7FCF30DC4508F45EC0AB
:10371000809192028F7E5AC0CD3FFCE5DF0709F40D
:1037200074C040F5C4319CE5D90709F48AC058F447
:10373000C231FCE5DF0709F474C008F46EC0809163
:103740009202837F43C0CB3F9CE5D90709F449C06F
:1037500008F04DC0C531DC4509F095CF809192024B
:1037600082FB992790F921E0922790FB82F990FB48
:1037700083F92CC0C1308DE5D80709F458C088F40E
:10378000809193028360CF3FECE5DE0769F1809181
:1037900093028D7FC115DD4538F1809193028C7FB6
:1037A00023C0C3308DE5D80709F458C008F452C0CF
:1037B000C236DD4509F067CF90919202892F8F7E46
:1037C00094FF806103C08091920281608093920295
:1037D0005ACF809192028460F9CF809192028860E2
:1037E000F5CF809193028160809393024CCF8091BA
:1037F00093028260F9CF809192028064E7CF0E94A9
:10380000D306809192028068E1CF809193028E7FEF
:10381000EBCF809192028F7DD9CF809192028F7BE6
:10382000D5CF0E94D306809192028F77CFCF80911F
:103830009302982F909591708E7F892B90FB81F940
:10384000D3CF0E94D30690919202892F97FB87F9DC
:103850008058BCCF81E00E94D40D15CF80E0FBCF13
:1038600081E01FCFCF93DF93EB0186319C4511F5AB
:103870000E946A0C9A81992399F08A7A91E009F45E
:1038800090E090937D02811109C089E20E94240C8E
:103890000E94BA0C80E0DF91CF91089585E3F6CFC6
:1038A00080917D02811104C089E20E942B0CF0CF2F
:1038B00085E3FBCF81E0EFCF909383028093820278
:1038C0000895E0918202F0918302309721F00190F7
:1038D000F081E02D099480E00895E0918202F0915A
:1038E0008302309721F00280F381E02D099408953E
:1038F00020918002309181022817390771F090934E
:10390000810280938002E0918202F09183023097DD
:1039100021F00680F781E02D0994089520917E0220
:1039200030917F022817390771F090937F028093BE
:103930007E02E0918202F0918302309721F00084B0
:10394000F185E02D099408959C012E5F3F4FAC0155
:10395000485F5F4F80E02417350709F40895F901A7
:1039600091919F019923B9F38F5FF5CF662349F0B9
:10397000FC01329608962191261729F0E817F907DD
:10398000D1F780E0089581E008959C01FC01329612
:103990009FEF80E04191461751F09F3F19F441118C
:1039A00001C0982F8F5F8630A9F79F3F09F40895D3
:1039B000290F311D97FD3A95F90162830895FC01A5
:1039C000329608962191261303C0DF0111971C92AD
:1039D000E817F907B9F708950C94C51C0C94DF1C7F
:1039E000029626E0FC0111922A95E9F708950895C0
:1039F000089508950C94F91C8091E502843059F1E2
:103A00000E94FA1C80E00E948D030E947817109299
:103A1000840288E190E020E40FB6F894A8958093A2
:103A200060000FBE2093600083B7817F846083BFF6
:103A300083B7816083BF7894889583B78E7F83BF77
:103A40000FB6F894A895809160008861809360001B
:103A5000109260000FBE08950895CF930E94F81C45
:103A60000E9415120E942C1DC0E08C2F0E94311163
:103A7000892B31F4CF5FC530C1F780E0CF91089535
:103A800081E0FCCF08950C94421D0E94D3060E9451
:103A9000611C0E948D030E9444180C94431D1F92C8
:103AA0001FB61F9211248F939F93AF93BF93809162
:103AB0008402811113C08091DD029091DE02A091F9
:103AC000DF02B091E0024196A11DB11D8093DD029D
:103AD0009093DE02A093DF02B093E002BF91AF911A
:103AE0009F918F911F901FBE1F90189582E084BDFB
:103AF00093E095BD9AEF97BD80936E0008952FB720
:103B0000F8948091DD029091DE02A091DF02B091E5
:103B1000E0022FBF08952FB7F8946091DD027091F5
:103B2000DE028091DF029091E0022FBF08959C0198
:103B30004FB7F8948091DD029091DE02A091DF02F0
:103B4000B091E0024FBF821B930B089578941F92AF
:103B50001FB61F9211248F939F93AF93BF938091B1
:103B6000DD029091DE02A091DF02B091E0020196A9
:103B7000A11DB11D8093DD029093DE02A093DF02B0
:103B8000B093E002BF91AF919F918F911F901FBEA4
:103B90001F90189581E08093E00080E28093D80028
:103BA0001092C9008FE19EE40197F1F700C0000078
:103BB00087E090EBDC018093EE029093EF02A093FC
:103BC000F002B093F10288E19CE00FB6F894A8955A
:103BD000809360000FBE90936000FFCF9093CD0163
:103BE0008093CC0108958091900208959091E50210
:103BF000943031F58093850270938702609386023A
:103C000082E08093E9008FEF9091E800815095FD6C
:103C100006C095ED9A95F1F700008111F5CF8091DE
:103C2000E80085FF0DC050E040E063E070E085E80B
:103C300092E00E94E21F8091E8008E778093E80076
:103C40000895BC0184E00C94F61DBC0183E00C9443
:103C5000F61DCF93DF93EC0181E08093E9008FEFB5
:103C60009091E800815095FD06C095ED9A95F1F789
:103C700000008111F5CF8091E80085FF14C050E06D
:103C800040E068E070E0CE010E94E21F8091E80011
:103C90008E778093E80088E0FE01A8E8B2E001900A
:103CA0000D928A95E1F7DF91CF9108950895809163
:103CB000E402811109C00E9472210E94CF218091EB
:103CC000E20084608093E20008951092E402089577
:103CD00008950895089542E061EC81E00E94EE208D
:103CE00042E261EC82E00C94EE208091E7028330A6
:103CF00009F45FC030F48130C1F1823009F49BC017
:103D000008958A3009F487C08B3009F46DC089307A
:103D100009F04EC08091E602813209F049C08091DD
:103D2000EA029091EB02029708F042C08091E8000D
:103D3000877F8093E8008091E80082FF35C09091F2
:103D4000F3008091F200029729F48091F1008B7FBB
:103D5000813021F48091F100809390028091E800FD
:103D60008B778093E8000C9422218091E602813ABF
:103D7000F9F48091E800877F8093E8008091EA025F
:103D80009091EB02892B61F468E088E892E070E0A2
:103D90000E9431208091E8008B778093E80008959D
:103DA00060E090E080E0F3CF8091E5028111C3CF25
:103DB00008958091E602813AD9F78091EA029091C4
:103DC000EB02892BA9F78091E800877F8093E800B8
:103DD0008091E80080FFFCCF80911F018093F1006B
:103DE0008091E8008E77BDCF8091E602813201F7A5
:103DF0008091EA029091EB02892BD1F68091E80044
:103E0000877F8093E8000E9422218091E8028093BE
:103E10001F010C94D3068091E602813249F680910D
:103E2000E800877F8093E8000E9422218091E902C8
:103E30008093910208958091E602813A09F0B8CF0B
:103E40008091E800877F8093E8008091E80080FF00
:103E5000FCCF80919102C2CF84B7877F84BF0FB619
:103E6000F894A8958091600088618093600010921A
:103E700060000FBE80E890E00FB6F8948093610078
:103E8000909361000FBE0C940D0E0E9472210E944F
:103E9000CF21E2EEF0E080818460808378940E94FC
:103EA00058240E94210E85E191E00C945C1C8091C5
:103EB000E502853031F48091E502853021F00E94E1
:103EC000451D0C942B0E0E94FC1C8091E30288235C
:103ED00091F30E942D1D882371F30E94CC1F0E9434
:103EE000D306E9CF0C94741F292F332723303105D3
:103EF00019F168F42130310509F444C0223031054C
:103F000009F445C090E080E030E020E025C0213297
:103F1000310549F122323105A9F780E490E022E928
:103F200034E061157105C1F082E390E020E634E0F1
:103F30006130710589F0E6CF99278130910581F0D4
:103F4000009729F00297F1F6EFEEF3E002C0EFE000
:103F5000F4E0849190E09F01FA0131832083089579
:103F6000E1E0F4E0F6CF89E090E025E234E061158D
:103F7000710591F389E090E02EE334E06130710542
:103F800059F3C0CF82E190E02EE434E0E5CF8BE33B
:103F900090E023E134E0E0CF80E189BD82E189BD9A
:103FA00009B400FEFDCF8091D8008F7D8093D800AA
:103FB0008091E00082608093E0008091E00081FDCC
:103FC000FCCF0895AF92BF92CF92DF92FF920F93F2
:103FD0001F93CF93DF936C01EB018A010E94412173
:103FE000F82E811123C00115110539F0F8018081E7
:103FF0009181C81BD90BC80ED91EB12CA12C2097BA
:10400000A9F08091E80085FD22C08091E8008E77BC
:104010008093E80001151105A1F0F80180819181DC
:10402000A80EB91EB182A08285E0F82E8F2DDF91F7
:10403000CF911F910F91FF90DF90CF90BF90AF90E5
:1040400008950E9441218823D1F2F82EEFCFF60186
:1040500081916F018093F1002197FFEFAF1ABF0AA2
:10406000CECFFC018091EC029091ED02861797076C
:10407000A0F06115710529F49091E8009E77909366
:10408000E80090E06115710551F4911108C080912C
:10409000E80082FF34C080E00895BC01F2CF809137
:1040A000E5028823C1F18530C1F18091E80083FDEC
:1040B00030C08091E80082FDEACF8091E80080FF67
:1040C000E1CF8091F3002091F200382F6115710546
:1040D00019F02830310558F091E02830310509F009
:1040E00090E02091E8002E772093E800CBCF8191DB
:1040F0008093F100615071092F5F3F4FE7CF8091AE
:10410000E502882341F0853041F08091E80083FF8B
:10411000BECF81E0089582E0089583E00895FC0118
:104120008091EC029091ED0286179707A0F061153F
:10413000710529F48091E8008E778093E80090E083
:104140006115710551F4911108C08091E80082FF5A
:1041500035C080E00895BC01F2CF8091E50288234C
:10416000C9F18530C9F18091E80083FD31C08091AB
:10417000E80082FDEACF8091E80080FFE1CF8091E6
:10418000F3002091F200382F6115710519F02830E5
:10419000310558F091E02830310509F090E0809128
:1041A000E8008E778093E800CBCF84918093F10074
:1041B0003196615071092F5F3F4FE6CF8091E50244
:1041C000882341F0853041F08091E80083FFBDCF26
:1041D00081E0089582E0089583E00895982F973054
:1041E00028F08F708093E90081E008959093E900B2
:1041F000242F762F50E0981731F07091EC00209129
:10420000ED005091F00021FD02C09F5FE8CF30919A
:10421000EB003E7F3093EB003091ED003D7F30931B
:10422000ED003091EB0031603093EB007093EC00C7
:104230002093ED005093F0002091EE0027FDE5CF94
:1042400080E008958091E60287FF13C08091E80026
:1042500082FF06C08091E8008B778093E80004C05D
:104260008091E5028111F2CF08958091E5028823C3
:10427000D9F38091E80080FFF8CF8091E8008E7735
:10428000ECCF2091E4003091E50095E6A901209162
:10429000EC00822F817020FF06C08091E80080FF33
:1042A00006C080E008952091E80022FD1AC08091A8
:1042B000E502882389F0853089F08091EB0085FD47
:1042C0000FC02091E4003091E50042175307F9F246
:1042D0009150E1F684E0089582E0089583E0089526
:1042E00081E008950E94E0210E94E821E0EEF0E0E4
:1042F000808181608083E8EDF0E080818F7780832A
:1043000019BCA7EDB0E08C918E7F8C9380818F7E5D
:1043100080831092E40208950F931F93CF93DF934D
:104320000E94E0210E94E821C8EDD0E088818F77CB
:10433000888388818068888388818F7D888319BC81
:104340001092E5021092E1021092E3021092E20252
:1043500000EE10E0F80180818B7F8083888181608E
:10436000888342E060E080E00E94EE20E1EEF0E031
:1043700080818E7F8083E2EEF0E0808181608083A7
:10438000808188608083F80180818E7F808388812E
:1043900080618883DF91CF911F910F910895E8ED9F
:1043A000F0E080818F7E8083E7EDF0E080818160A6
:1043B000808384E082BF81E08093E4020C948C21AE
:1043C000E8EDF0E080818E7F80831092E200089516
:1043D0001092DA001092E10008951F920F920FB62A
:1043E0000F9211242F933F934F935F936F937F937B
:1043F0008F939F93AF93BF93EF93FF938091E100CF
:1044000082FF0BC08091E20082FF07C08091E10033
:104410008B7F8093E1000E9457248091DA0080FF17
:1044200019C08091D80080FF15C08091DA008E7F7E
:104430008093DA008091D90080FF96C080E189BD29
:1044400082E189BD09B400FEFDCF81E08093E502E1
:104450000E94571E8091E10080FF19C08091E20008
:1044600080FF15C08091E2008E7F8093E2008091F2
:10447000E20080618093E2008091D80080628093A6
:10448000D80019BC85E08093E5020E94691E8091E6
:10449000E10084FF2BC08091E20084FF27C080E10F
:1044A00089BD82E189BD89B5982F917080FFFBCFCE
:1044B0008091D8008F7D8093D8008091E1008F7E1D
:1044C0008093E1008091E2008F7E8093E2008091F2
:1044D000E20081608093E2008091E102882309F488
:1044E00049C084E08093E5020E946A1E8091E10049
:1044F00083FF29C08091E20083FF25C08091E10005
:10450000877F8093E10082E08093E5021092E102D0
:104510008091E1008E7F8093E1008091E2008E7FA8
:104520008093E2008091E20080618093E20042E0AB
:1045300060E080E00E94EE208091F000886080932F
:10454000F0000E94681EFF91EF91BF91AF919F9183
:104550008F917F916F915F914F913F912F910F902C
:104560000FBE0F901F90189519BC1092E5020E9483
:10457000651E70CF8091E30087FD93E09093E50284
:10458000B3CF1F920F920FB60F9211242F933F9328
:104590004F935F936F937F938F939F93AF93BF934B
:1045A000CF93DF93EF93FF93D091E900DF70809179
:1045B000EC00C82FC17080FDC0E81092E900809126
:1045C000F000877F8093F00078940E94052310927A
:1045D000E9008091F00088608093F000CD2BCF70CF
:1045E000C093E900FF91EF91DF91CF91BF91AF911F
:1045F0009F918F917F916F915F914F913F912F91FB
:104600000F900FBE0F901F9018951F93CF93DF93BD
:10461000CDB7DEB7AA970FB6F894DEBF0FBECDBFF9
:1046200086EE92E02091F100FC012193CF01F2E0AF
:104630008E3E9F07B9F70E94751E8091E80083FFA8
:104640001EC18091E6029091E7029A3008F017C1EE
:10465000E92FF0E0EA58FA4D0C94BD24803899F027
:10466000823809F00CC18091EA028F70873008F01F
:1046700006C18093E9008091EB0085FB882780F9D3
:104680001092E90006C08091E2029091E30291113C
:1046900082609091E800977F9093E8008093F1000A
:1046A0001092F1008091E8008E77E5C0882309F42C
:1046B000D3C0823009F0E3C08091E8028111D6C0F6
:1046C0008091EA028F702FEF280F263008F0D7C0B4
:1046D0008093E9002091EB0020FFC8C0933031F4B3
:1046E0008091EB0080628093EB00C0C09091EB0062
:1046F00090619093EB0021E030E001C0220F8A9599
:10470000EAF72093EA001092EA008091EB008860BB
:10471000EACF8111B4C01091E8021F778091E300C5
:104720008078812B8093E3008091E800877F8093DD
:10473000E8000E9422218091E80080FFFCCF809158
:10474000E30080688093E30082E0111183E08093AE
:10475000E50295C08058823008F091C08091E8024F
:104760009091E9028C3D23E09207A1F583E08A83D2
:104770008AE289834FB7F894DE01139620E03EE089
:1047800051E2E32FF0E050935700E49120FF03C083
:10479000E295EF703F5FEF708E2F90E0EA30C0F04F
:1047A000C7968D939D932F5F243159F74FBF80910A
:1047B000E800877F8093E8006AE270E0CE0101960E
:1047C0000E9431208091E8008B778093E80057C0E9
:1047D000C096E7CF6091EA027091EB02AE014F5FA5
:1047E0005F4F0E94721FBC01892B09F448C0909151
:1047F000E800977F9093E80089819A810E948F203A
:10480000E1CF8038E1F58091E800877F8093E80070
:104810008091E1028093F10045CF811130C09091E9
:10482000E802923060F58091E800877F8093E8008D
:104830009093E1020E9422218091E102882311F0ED
:1048400084E005C08091E30087FDFACF81E080938A
:10485000E5020E946B1E13C08091E802813079F45A
:1048600081E0933009F080E08093E3021092E90048
:104870008091E800877F8093E8000E942221809148
:10488000E80083FF0AC08091E800877F8093E800FA
:104890008091EB0080628093EB00AA960FB6F894AB
:1048A000DEBF0FBECDBFDF91CF911F910895089558
:1048B000CF938091E5028823A1F0C091E900CF70E9
:1048C0009091EC00892F817090FD80E8C82B1092A8
:1048D000E9008091E80083FD0E940523CF70C0931A
:1048E000E900CF910895AA1BBB1B51E107C0AA1F85
:1048F000BB1FA617B70710F0A61BB70B881F991F81
:104900005A95A9F780959095BC01CD01089597FB24
:10491000072E16F4009407D077FD09D00E94732467
:1049200007FC05D03EF4909581959F4F08957095B2
:1049300061957F4F0895A1E21A2EAA1BBB1BFD01B2
:104940000DC0AA1FBB1FEE1FFF1FA217B307E4076E
:10495000F50720F0A21BB30BE40BF50B661F771FC6
:10496000881F991F1A9469F76095709580959095A6
:104970009B01AC01BD01CF010895EE0FFF1F059013
:10498000F491E02D09940E94CB24332312F48A1B66
:104990009B0B0C94DC24A29FB001B39FC001A39F8A
:1049A000700D811D1124911DB29F700D811D112468
:1049B000911D08950E94CB24B7FF0895821B930B8D
:1049C00008950E94CB24A59F900DB49F900DA49FA5
:1049D000800D911D11240895B7FF0C94E1240E94CD
:1049E000E124821B930B0895FC014150504030F0AC
:1049F00001900616D1F73197CF010895882799279E
:104A00000895FB01DC0104C08D910190801921F40F
:104A100041505040C8F7881B990B0895F999FECF73
:104A200092BD81BDF89A992780B50895A6E1B0E0BE
:104A300044E050E00C944825A8E1B0E042E050E0AA
:104A40000C944825262FF999FECF92BD81BDF89A86
:104A5000019700B4021639F01FBA20BD0FB6F894C2
:104A6000FA9AF99A0FBE08950396272F0E942325DC
:104A70000E942225252F0E942325242F0C942325D4
:104A80000196272F0E9423250C942225DC01CB01BF
:104A9000FC01F999FECF06C0F2BDE1BDF89A31964E
:104AA00000B40D9241505040B8F70895F894FFCFEC
:104AB000A704A704FE04FE045105D404D404D404BE
:104AC0006D05F905080608066806D404D4047106C5
:104AD000E206E206EB06EB06ED06EB06EB06EB065E
:104AE000E206E206F206EB06EB06F2062E2356235A
:104AF0003F2456233F248923AA233F2401240D2445
:104B00004302010102001000101001191A1B1C1DA4
:104B10001E1F202122F31D291E561E251E211E01A7
:104B2000E200E900EA00B500B600B700CD0083015D
:104B3000CC008A0192019401210223022402250261
:104B4000260227022A02B300B4006F00700081829F
:104B500083E200E900EA00B500B600B700CD0083AB
:104B600001CC008A01920194012102230224022532
:104B700002260227022A02B300B4006F00700081EF
:104B8000828397C63435379567F036323331F7F67E
:104B9000F56694909192000102020202060606094F
:104BA00009090909090F0F0F0F0F0F15151518190E
:104BB000191919191919191919232400FF010001CC
:0C4BC0000000FFFF0000010001FF0000EA
:00000001FF
